{
    "_format": "hh-sol-artifact-1",
    "contractName": "StakingImplementation",
    "sourceName": "contracts/staking/StakingImplementation.sol",
    "abi": [
        {
            "anonymous": false,
            "inputs": [
                {
                    "indexed": true,
                    "internalType": "address",
                    "name": "holder",
                    "type": "address"
                },
                {
                    "indexed": false,
                    "internalType": "uint256",
                    "name": "amount",
                    "type": "uint256"
                }
            ],
            "name": "Claimed",
            "type": "event"
        },
        {
            "anonymous": false,
            "inputs": [
                {
                    "indexed": true,
                    "internalType": "address",
                    "name": "holder",
                    "type": "address"
                },
                {
                    "indexed": false,
                    "internalType": "uint256",
                    "name": "amount",
                    "type": "uint256"
                },
                {
                    "indexed": false,
                    "internalType": "uint256",
                    "name": "lastUnstakeId",
                    "type": "uint256"
                }
            ],
            "name": "ClaimedPartial",
            "type": "event"
        },
        {
            "anonymous": false,
            "inputs": [
                {
                    "indexed": false,
                    "internalType": "uint256",
                    "name": "oldCooldown",
                    "type": "uint256"
                },
                {
                    "indexed": false,
                    "internalType": "uint256",
                    "name": "newCooldown",
                    "type": "uint256"
                }
            ],
            "name": "CooldownUpdated",
            "type": "event"
        },
        {
            "anonymous": false,
            "inputs": [
                {
                    "indexed": false,
                    "internalType": "uint8",
                    "name": "version",
                    "type": "uint8"
                }
            ],
            "name": "Initialized",
            "type": "event"
        },
        {
            "anonymous": false,
            "inputs": [
                {
                    "indexed": true,
                    "internalType": "address",
                    "name": "previousOwner",
                    "type": "address"
                },
                {
                    "indexed": true,
                    "internalType": "address",
                    "name": "newOwner",
                    "type": "address"
                }
            ],
            "name": "OwnershipTransferred",
            "type": "event"
        },
        {
            "anonymous": false,
            "inputs": [
                {
                    "indexed": true,
                    "internalType": "address",
                    "name": "holder",
                    "type": "address"
                },
                {
                    "indexed": false,
                    "internalType": "uint256",
                    "name": "amount",
                    "type": "uint256"
                }
            ],
            "name": "Staked",
            "type": "event"
        },
        {
            "anonymous": false,
            "inputs": [
                {
                    "indexed": true,
                    "internalType": "address",
                    "name": "holder",
                    "type": "address"
                },
                {
                    "indexed": false,
                    "internalType": "uint256",
                    "name": "amount",
                    "type": "uint256"
                }
            ],
            "name": "Unstaked",
            "type": "event"
        },
        {
            "inputs": [],
            "name": "SAVEH",
            "outputs": [
                {
                    "internalType": "contract IERC20Upgradeable",
                    "name": "",
                    "type": "address"
                }
            ],
            "stateMutability": "view",
            "type": "function"
        },
        {
            "inputs": [],
            "name": "SSAVEH",
            "outputs": [
                {
                    "internalType": "contract IMintableERC20",
                    "name": "",
                    "type": "address"
                }
            ],
            "stateMutability": "view",
            "type": "function"
        },
        {
            "inputs": [],
            "name": "claim",
            "outputs": [],
            "stateMutability": "nonpayable",
            "type": "function"
        },
        {
            "inputs": [
                {
                    "internalType": "address",
                    "name": "_holderAddress",
                    "type": "address"
                }
            ],
            "name": "claimAmount",
            "outputs": [
                {
                    "internalType": "uint256",
                    "name": "",
                    "type": "uint256"
                }
            ],
            "stateMutability": "view",
            "type": "function"
        },
        {
            "inputs": [
                {
                    "internalType": "uint256",
                    "name": "_lastUnstakeId",
                    "type": "uint256"
                }
            ],
            "name": "claimPartial",
            "outputs": [],
            "stateMutability": "nonpayable",
            "type": "function"
        },
        {
            "inputs": [],
            "name": "cooldown",
            "outputs": [
                {
                    "internalType": "uint256",
                    "name": "",
                    "type": "uint256"
                }
            ],
            "stateMutability": "view",
            "type": "function"
        },
        {
            "inputs": [],
            "name": "currentTotalAmount",
            "outputs": [
                {
                    "internalType": "uint256",
                    "name": "",
                    "type": "uint256"
                }
            ],
            "stateMutability": "view",
            "type": "function"
        },
        {
            "inputs": [],
            "name": "donationMiner",
            "outputs": [
                {
                    "internalType": "contract IDonationMiner",
                    "name": "",
                    "type": "address"
                }
            ],
            "stateMutability": "view",
            "type": "function"
        },
        {
            "inputs": [],
            "name": "getVersion",
            "outputs": [
                {
                    "internalType": "uint256",
                    "name": "",
                    "type": "uint256"
                }
            ],
            "stateMutability": "pure",
            "type": "function"
        },
        {
            "inputs": [
                {
                    "internalType": "contract IERC20Upgradeable",
                    "name": "_SAVEH",
                    "type": "address"
                },
                {
                    "internalType": "contract IMintableERC20",
                    "name": "_SSAVEH",
                    "type": "address"
                },
                {
                    "internalType": "contract IDonationMiner",
                    "name": "_donationMiner",
                    "type": "address"
                },
                {
                    "internalType": "uint256",
                    "name": "_cooldown",
                    "type": "uint256"
                }
            ],
            "name": "initialize",
            "outputs": [],
            "stateMutability": "nonpayable",
            "type": "function"
        },
        {
            "inputs": [],
            "name": "owner",
            "outputs": [
                {
                    "internalType": "address",
                    "name": "",
                    "type": "address"
                }
            ],
            "stateMutability": "view",
            "type": "function"
        },
        {
            "inputs": [],
            "name": "renounceOwnership",
            "outputs": [],
            "stateMutability": "nonpayable",
            "type": "function"
        },
        {
            "inputs": [
                {
                    "internalType": "address",
                    "name": "_holderAddress",
                    "type": "address"
                },
                {
                    "internalType": "uint256",
                    "name": "_amount",
                    "type": "uint256"
                }
            ],
            "name": "stake",
            "outputs": [],
            "stateMutability": "nonpayable",
            "type": "function"
        },
        {
            "inputs": [
                {
                    "internalType": "address",
                    "name": "_holderAddress",
                    "type": "address"
                }
            ],
            "name": "stakeholder",
            "outputs": [
                {
                    "internalType": "uint256",
                    "name": "amount",
                    "type": "uint256"
                },
                {
                    "internalType": "uint256",
                    "name": "nextUnstakeId",
                    "type": "uint256"
                },
                {
                    "internalType": "uint256",
                    "name": "unstakeListLength",
                    "type": "uint256"
                },
                {
                    "internalType": "uint256",
                    "name": "unstakedAmount",
                    "type": "uint256"
                }
            ],
            "stateMutability": "view",
            "type": "function"
        },
        {
            "inputs": [
                {
                    "internalType": "address",
                    "name": "_holderAddress",
                    "type": "address"
                }
            ],
            "name": "stakeholderAmount",
            "outputs": [
                {
                    "internalType": "uint256",
                    "name": "",
                    "type": "uint256"
                }
            ],
            "stateMutability": "view",
            "type": "function"
        },
        {
            "inputs": [
                {
                    "internalType": "address",
                    "name": "_holderAddress",
                    "type": "address"
                },
                {
                    "internalType": "uint256",
                    "name": "_unstakeIndex",
                    "type": "uint256"
                }
            ],
            "name": "stakeholderUnstakeAt",
            "outputs": [
                {
                    "components": [
                        {
                            "internalType": "uint256",
                            "name": "amount",
                            "type": "uint256"
                        },
                        {
                            "internalType": "uint256",
                            "name": "cooldownBlock",
                            "type": "uint256"
                        }
                    ],
                    "internalType": "struct IStaking.Unstake",
                    "name": "",
                    "type": "tuple"
                }
            ],
            "stateMutability": "view",
            "type": "function"
        },
        {
            "inputs": [
                {
                    "internalType": "uint256",
                    "name": "_index",
                    "type": "uint256"
                }
            ],
            "name": "stakeholdersListAt",
            "outputs": [
                {
                    "internalType": "address",
                    "name": "",
                    "type": "address"
                }
            ],
            "stateMutability": "view",
            "type": "function"
        },
        {
            "inputs": [],
            "name": "stakeholdersListLength",
            "outputs": [
                {
                    "internalType": "uint256",
                    "name": "",
                    "type": "uint256"
                }
            ],
            "stateMutability": "view",
            "type": "function"
        },
        {
            "inputs": [
                {
                    "internalType": "address",
                    "name": "newOwner",
                    "type": "address"
                }
            ],
            "name": "transferOwnership",
            "outputs": [],
            "stateMutability": "nonpayable",
            "type": "function"
        },
        {
            "inputs": [
                {
                    "internalType": "uint256",
                    "name": "_amount",
                    "type": "uint256"
                }
            ],
            "name": "unstake",
            "outputs": [],
            "stateMutability": "nonpayable",
            "type": "function"
        },
        {
            "inputs": [
                {
                    "internalType": "uint256",
                    "name": "_newCooldown",
                    "type": "uint256"
                }
            ],
            "name": "updateCooldown",
            "outputs": [],
            "stateMutability": "nonpayable",
            "type": "function"
        }
    ],
    "bytecode": "0x608060405234801561001057600080fd5b506117f6806100206000396000f3fe608060405234801561001057600080fd5b50600436106101375760003560e01c806384f1265b116100b8578063b355e49b1161007c578063b355e49b14610271578063cf756fdf14610284578063e36d4f3e14610297578063ec98518e146102aa578063f2fde38b146102bd578063f7e72617146102d057600080fd5b806384f1265b146102155780638c58d0a91461021d5780638da5cb5b146102265780639d7023ba1461024b578063adc9772e1461025e57600080fd5b806355119df9116100ff57806355119df9146101b55780636bbea1b4146101c8578063715018a6146101f157806378317be7146101f9578063787a08a61461020c57600080fd5b80630d8e6e2c1461013c578063225e69d5146101525780632e17de78146101855780634e71d92d1461019a57806352a8088f146101a2575b600080fd5b60015b6040519081526020015b60405180910390f35b61016561016036600461159e565b6102fe565b604080519485526020850193909352918301526060820152608001610149565b610198610193366004611655565b6103bd565b005b610198610610565b6101986101b0366004611655565b6106de565b6101986101c3366004611655565b6107a9565b61013f6101d636600461159e565b6001600160a01b03166000908152609c602052604090205490565b6101986107f2565b61013f61020736600461159e565b610804565b61013f609a5481565b61013f6108dd565b61013f609b5481565b6033546001600160a01b03165b6040516001600160a01b039091168152602001610149565b609754610233906001600160a01b031681565b61019861026c3660046115ba565b6108ee565b609854610233906001600160a01b031681565b610198610292366004611605565b610b51565b609954610233906001600160a01b031681565b6102336102b8366004611655565b610df1565b6101986102cb36600461159e565b610e04565b6102e36102de3660046115ba565b610e7a565b60408051825181526020928301519281019290925201610149565b6001600160a01b038181166000818152609c602052604080822080546001820154600283015460985494516370a0823160e01b815260048101979097529496879687968796909285929116906370a082319060240160206040518083038186803b15801561036b57600080fd5b505afa15801561037f573d6000803e3d6000fd5b505050506040513d601f19601f820116820180604052508101906103a3919061166d565b6103ad9190611737565b9450945094509450509193509193565b600081116104295760405162461bcd60e51b815260206004820152602e60248201527f5374616b653a3a756e7374616b653a20556e7374616b6520616d6f756e74207360448201526d0686f756c64206e6f7420626520360941b60648201526084015b60405180910390fd5b6001600160601b0381111561048f5760405162461bcd60e51b815260206004820152602660248201527f5374616b653a3a756e7374616b653a20556e7374616b6520616d6f756e7420746044820152656f6f2062696760d01b6064820152608401610420565b336000908152609c6020526040902080548211156104ef5760405162461bcd60e51b815260206004820181905260248201527f5374616b653a3a756e7374616b653a204e6f7420656e6f7567682066756e64736044820152606401610420565b806002016040518060400160405280848152602001609a5443610512919061171f565b90528154600181810184556000938452602080852084516002909402019283559092015191015581548391839161054a908490611737565b9250508190555081609b60008282546105639190611737565b90915550506099548154609b5460405163ad3e48c560e01b8152336004820152602481019290925260448201526001600160a01b039091169063ad3e48c590606401600060405180830381600087803b1580156105bf57600080fd5b505af11580156105d3573d6000803e3d6000fd5b50506040518481523392507f0f5bb82176feb1b5e747e28471aa92156a04d9f3ab9f45f28e2d704232b93f75915060200160405180910390a25050565b610618610efe565b336000908152609c60205260409020600201546106775760405162461bcd60e51b815260206004820152601f60248201527f5374616b653a3a636c61696d3a204e6f2066756e647320746f20636c61696d006044820152606401610420565b336000818152609c60205260409020600201547fd8138f8a3f377c5259ca548e70e4c2de94f129f5a11036a15b69513cba2b426a906106c1906106bc90600190611737565b610f58565b60405190815260200160405180910390a26106dc6001606555565b565b6106e6610efe565b336000908152609c6020526040902060020154811061075a5760405162461bcd60e51b815260206004820152602a60248201527f5374616b653a3a636c61696d5061727469616c3a206c617374556e7374616b65604482015269496420746f6f2062696760b01b6064820152608401610420565b337f5239dcc98d7316a9bcc086298a1940913af527d281cb606f3d6de92008fa2c5461078583610f58565b60408051918252602082018590520160405180910390a26107a66001606555565b50565b6107b16110ec565b609a5460408051918252602082018390527f5953b565c074c2cce1866b4e69c9efc4908556bb6fca70f735907c94d9405515910160405180910390a1609a55565b6107fa6110ec565b6106dc6000611146565b6001600160a01b0381166000908152609c60205260408120600281015461082e5750600092915050565b600181015460005b60028301548210801561087c57504383600201838154811061086857634e487b7160e01b600052603260045260246000fd5b906000526020600020906002020160010154105b156108d5578260020182815481106108a457634e487b7160e01b600052603260045260246000fd5b906000526020600020906002020160000154816108c1919061171f565b9050816108cd8161177a565b925050610836565b949350505050565b60006108e9609d611198565b905090565b6108f6610efe565b600081116109465760405162461bcd60e51b815260206004820152601f60248201527f5374616b653a3a7374616b653a20416d6f756e742063616e27742062652030006044820152606401610420565b6001600160601b038111156109a85760405162461bcd60e51b815260206004820152602260248201527f5374616b653a3a7374616b653a205374616b6520616d6f756e7420746f6f2062604482015261696760f01b6064820152608401610420565b6097546109c0906001600160a01b03163330846111a2565b609854604051626c096960e61b81526001600160a01b0384811660048301526001600160601b038416602483015290911690631b025a4090604401600060405180830381600087803b158015610a1557600080fd5b505af1158015610a29573d6000803e3d6000fd5b50505050610a4182609d61121390919063ffffffff16565b506001600160a01b0382166000908152609c60205260408120805490918391839190610a6e90849061171f565b9250508190555081609b6000828254610a87919061171f565b90915550506099548154609b5460405163ad3e48c560e01b81526001600160a01b0387811660048301526024820193909352604481019190915291169063ad3e48c590606401600060405180830381600087803b158015610ae757600080fd5b505af1158015610afb573d6000803e3d6000fd5b50505050826001600160a01b03167f9e71bc8eea02a63969f509818f2dafb9254532904319f9dbda79b67bd34a5f3d83604051610b3a91815260200190565b60405180910390a250610b4d6001606555565b5050565b600054610100900460ff1615808015610b715750600054600160ff909116105b80610b8b5750303b158015610b8b575060005460ff166001145b610bee5760405162461bcd60e51b815260206004820152602e60248201527f496e697469616c697a61626c653a20636f6e747261637420697320616c72656160448201526d191e481a5b9a5d1a585b1a5e995960921b6064820152608401610420565b6000805460ff191660011790558015610c11576000805461ff0019166101001790555b6001600160a01b038516610c795760405162461bcd60e51b815260206004820152602960248201527f5374616b653a3a696e697469616c697a653a20696e76616c6964205f5341564560448201526848206164647265737360b81b6064820152608401610420565b6001600160a01b038416610ce25760405162461bcd60e51b815260206004820152602a60248201527f5374616b653a3a696e697469616c697a653a20696e76616c6964205f535341566044820152694548206164647265737360b01b6064820152608401610420565b6001600160a01b038316610d525760405162461bcd60e51b815260206004820152603160248201527f5374616b653a3a696e697469616c697a653a20696e76616c6964205f646f6e6160448201527074696f6e4d696e6572206164647265737360781b6064820152608401610420565b610d5a61122f565b610d6261125e565b609780546001600160a01b038088166001600160a01b031992831617909255609880548784169083161790556099805492861692909116919091179055609a8290558015610dea576000805461ff0019169055604051600181527f7f26b83ff96e1f2b6a682f133852f6798a09c465da95921460cefb38474024989060200160405180910390a15b5050505050565b6000610dfe609d8361128d565b92915050565b610e0c6110ec565b6001600160a01b038116610e715760405162461bcd60e51b815260206004820152602660248201527f4f776e61626c653a206e6577206f776e657220697320746865207a65726f206160448201526564647265737360d01b6064820152608401610420565b6107a681611146565b60408051808201909152600080825260208201526001600160a01b0383166000908152609c60205260409020600201805483908110610ec957634e487b7160e01b600052603260045260246000fd5b906000526020600020906002020160405180604001604052908160008201548152602001600182015481525050905092915050565b60026065541415610f515760405162461bcd60e51b815260206004820152601f60248201527f5265656e7472616e637947756172643a207265656e7472616e742063616c6c006044820152606401610420565b6002606555565b336000908152609c602052604081206001810154825b848211158015610fb1575043836002018381548110610f9d57634e487b7160e01b600052603260045260246000fd5b906000526020600020906002020160010154105b1561100a57826002018281548110610fd957634e487b7160e01b600052603260045260246000fd5b90600052602060002090600202016000015481610ff6919061171f565b9050816110028161177a565b925050610f6e565b6000811161105a5760405162461bcd60e51b815260206004820152601f60248201527f5374616b653a3a636c61696d3a204e6f2066756e647320746f20636c61696d006044820152606401610420565b600183018290556098546040516346f9647360e11b81523360048201526001600160601b03831660248201526001600160a01b0390911690638df2c8e690604401600060405180830381600087803b1580156110b557600080fd5b505af11580156110c9573d6000803e3d6000fd5b50506097546108d592506001600160a01b031690503383611299565b6001606555565b6033546001600160a01b031633146106dc5760405162461bcd60e51b815260206004820181905260248201527f4f776e61626c653a2063616c6c6572206973206e6f7420746865206f776e65726044820152606401610420565b603380546001600160a01b038381166001600160a01b0319831681179093556040519116919082907f8be0079c531659141344cd1fd0a4f28419497f9722a3daafe3b4186f6b6457e090600090a35050565b6000610dfe825490565b6040516001600160a01b038085166024830152831660448201526064810182905261120d9085906323b872dd60e01b906084015b60408051601f198184030181529190526020810180516001600160e01b03166001600160e01b0319909316929092179091526112ce565b50505050565b6000611228836001600160a01b0384166113a0565b9392505050565b600054610100900460ff166112565760405162461bcd60e51b8152600401610420906116d4565b6106dc6113ef565b600054610100900460ff166112855760405162461bcd60e51b8152600401610420906116d4565b6106dc61141f565b60006112288383611446565b6040516001600160a01b0383166024820152604481018290526112c990849063a9059cbb60e01b906064016111d6565b505050565b6000611323826040518060400160405280602081526020017f5361666545524332303a206c6f772d6c6576656c2063616c6c206661696c6564815250856001600160a01b031661147e9092919063ffffffff16565b8051909150156112c9578080602001905181019061134191906115e5565b6112c95760405162461bcd60e51b815260206004820152602a60248201527f5361666545524332303a204552433230206f7065726174696f6e20646964206e6044820152691bdd081cdd58d8d9595960b21b6064820152608401610420565b60008181526001830160205260408120546113e757508154600181810184556000848152602080822090930184905584548482528286019093526040902091909155610dfe565b506000610dfe565b600054610100900460ff166114165760405162461bcd60e51b8152600401610420906116d4565b6106dc33611146565b600054610100900460ff166110e55760405162461bcd60e51b8152600401610420906116d4565b600082600001828154811061146b57634e487b7160e01b600052603260045260246000fd5b9060005260206000200154905092915050565b60606108d5848460008585600080866001600160a01b031685876040516114a59190611685565b60006040518083038185875af1925050503d80600081146114e2576040519150601f19603f3d011682016040523d82523d6000602084013e6114e7565b606091505b50915091506114f887838387611503565b979650505050505050565b6060831561156f578251611568576001600160a01b0385163b6115685760405162461bcd60e51b815260206004820152601d60248201527f416464726573733a2063616c6c20746f206e6f6e2d636f6e74726163740000006044820152606401610420565b50816108d5565b6108d583838151156115845781518083602001fd5b8060405162461bcd60e51b815260040161042091906116a1565b6000602082840312156115af578081fd5b8135611228816117ab565b600080604083850312156115cc578081fd5b82356115d7816117ab565b946020939093013593505050565b6000602082840312156115f6578081fd5b81518015158114611228578182fd5b6000806000806080858703121561161a578182fd5b8435611625816117ab565b93506020850135611635816117ab565b92506040850135611645816117ab565b9396929550929360600135925050565b600060208284031215611666578081fd5b5035919050565b60006020828403121561167e578081fd5b5051919050565b6000825161169781846020870161174e565b9190910192915050565b60208152600082518060208401526116c081604085016020870161174e565b601f01601f19169190910160400192915050565b6020808252602b908201527f496e697469616c697a61626c653a20636f6e7472616374206973206e6f74206960408201526a6e697469616c697a696e6760a81b606082015260800190565b6000821982111561173257611732611795565b500190565b60008282101561174957611749611795565b500390565b60005b83811015611769578181015183820152602001611751565b8381111561120d5750506000910152565b600060001982141561178e5761178e611795565b5060010190565b634e487b7160e01b600052601160045260246000fd5b6001600160a01b03811681146107a657600080fdfea2646970667358221220c6a9d019ed28935ee60f5aece4a02684803361e5fa8075585f6f3bc1f0b0fe2064736f6c63430008040033",
    "linkReferences": {},
    "deployedLinkReferences": {}
}